:020000040000fa
:080000000002040000000000f2
:020000040000fa
:04000800c20400002e
:020000040000fa
:04000c0010050000db
:020000040000fa
:040010008206000064
:020000040000fa
:04001400440500009f
:020000040000fa
:040018007805000067
:020000040000fa
:04001c008206000058
:020000040000fa
:040020007e05000059
:020000040000fa
:040024008206000050
:020000040000fa
:04002800820600004c
:020000040000fa
:04002c008206000048
:020000040000fa
:040030008206000044
:020000040000fa
:040034008206000040
:020000040000fa
:04003800820600003c
:020000040000fa
:04003c008206000038
:020000040000fa
:040040008206000034
:020000040000fa
:040044008206000030
:020000040000fa
:04004800820600002c
:020000040000fa
:04004c008206000028
:020000040000fa
:040050008206000024
:020000040000fa
:04005400860300001f
:020000040000fa
:04005800020300009f
:020000040000fa
:04005c008206000018
:020000040000fa
:040060008206000014
:020000040000fa
:040064008206000010
:020000040000fa
:04006800820600000c
:020000040000fa
:04006c008206000008
:020000040000fa
:040070008206000004
:020000040000fa
:040074008206000000
:020000040000fa
:0400780082060000fc
:020000040000fa
:04007c0082060000f8
:020000040000fa
:0400800082060000f4
:020000040000fa
:0400840082060000f0
:020000040000fa
:0400880082060000ec
:020000040000fa
:04008c0082060000e8
:020000040000fa
:0400900082060000e4
:020000040000fa
:0400940082060000e0
:020000040000fa
:0400980082060000dc
:020000040000fa
:04009c0082060000d8
:020000040000fa
:0400a00064040000f4
:020000040000fa
:0400a400e003000075
:020000040000fa
:0400a80082060000cc
:020000040000fa
:0400ac0082060000c8
:020000040000fa
:0400b00082060000c4
:020000040000fa
:0400b40082060000c0
:020000040000fa
:0400b80082060000bc
:020000040000fa
:0400bc0082060000b8
:020000040000fa
:0400c00082060000b4
:020000040000fa
:0400c40082060000b0
:020000040000fa
:0400c80082060000ac
:020000040000fa
:0400cc0082060000a8
:020000040000fa
:0400d00082060000a4
:020000040000fa
:0400d40082060000a0
:020000040000fa
:0400d800820600009c
:020000040000fa
:0400dc008206000098
:020000040000fa
:0400e0008206000094
:020000040000fa
:0400e4008206000090
:020000040000fa
:0400e800820600008c
:020000040000fa
:0400ec008206000088
:020000040000fa
:0400f0008206000084
:020000040000fa
:0400f4008206000080
:020000040000fa
:0400f800820600007c
:020000040000fa
:0400fc008206000078
:020000040000fa
:040100008206000073
:020000040000fa
:04010400820600006f
:020000040000fa
:04010800820600006b
:020000040000fa
:04010c008206000067
:020000040000fa
:040110008206000063
:020000040000fa
:04011400820600005f
:020000040000fa
:04011800820600005b
:020000040000fa
:04011c008206000057
:020000040000fa
:040120008206000053
:020000040000fa
:04012400820600004f
:020000040000fa
:04012800820600004b
:020000040000fa
:04012c004403000088
:020000040000fa
:0401300022040000a5
:020000040000fa
:04013400820600003f
:020000040000fa
:04013800820600003b
:020000040000fa
:04013c008206000037
:020000040000fa
:040140008206000033
:020000040000fa
:04014400820600002f
:020000040000fa
:04014800820600002b
:020000040000fa
:04014c008206000027
:020000040000fa
:040150008206000023
:020000040000fa
:04015400820600001f
:020000040000fa
:04015800820600001b
:020000040000fa
:04015c008206000017
:020000040000fa
:040160008206000013
:020000040000fa
:04016400820600000f
:020000040000fa
:04016800820600000b
:020000040000fa
:04016c008206000007
:020000040000fa
:040170008206000003
:020000040000fa
:0401740082060000ff
:020000040000fa
:0401780082060000fb
:020000040000fa
:04017c0082060000f7
:020000040000fa
:0401800082060000f3
:020000040000fa
:0401840082060000ef
:020000040000fa
:0401880082060000eb
:020000040000fa
:04018c0082060000e7
:020000040000fa
:0401900082060000e3
:020000040000fa
:0401940082060000df
:020000040000fa
:0401980082060000db
:020000040000fa
:04019c0082060000d7
:020000040000fa
:0401a00082060000d3
:020000040000fa
:0401a40082060000cf
:020000040000fa
:0401a80082060000cb
:020000040000fa
:0401ac0082060000c7
:020000040000fa
:0401b00082060000c3
:020000040000fa
:0401b40082060000bf
:020000040000fa
:0401b80082060000bb
:020000040000fa
:0401bc0082060000b7
:020000040000fa
:0401c00082060000b3
:020000040000fa
:0401c40082060000af
:020000040000fa
:0401c80082060000ab
:020000040000fa
:0401cc0082060000a7
:020000040000fa
:0401d00082060000a3
:020000040000fa
:0401d400820600009f
:020000040000fa
:0401d800820600009b
:020000040000fa
:0401dc008206000097
:020000040000fa
:0401e0008206000093
:020000040000fa
:0401e400820600008f
:020000040000fa
:0401e800820600008b
:020000040000fa
:0401ec008206000087
:020000040000fa
:0401f0008206000083
:020000040000fa
:0401f400820600007f
:020000040000fa
:0401f800820600007b
:020000040000fa
:0401fc008206000077
:020000040000fa
:040200008206000072
:020000040000fa
:04020400820600006e
:020000040000fa
:04020800820600006a
:020000040000fa
:04020c008206000066
:020000040000fa
:040210008206000062
:020000040000fa
:04021400820600005e
:020000040000fa
:04021800820600005a
:020000040000fa
:04021c008206000056
:020000040000fa
:040220008206000052
:020000040000fa
:04022400820600004e
:020000040000fa
:04022800820600004a
:020000040000fa
:04022c008206000046
:020000040000fa
:040230008206000042
:020000040000fa
:04023400820600003e
:020000040000fa
:04023800820600003a
:020000040000fa
:04023c008206000036
:020000040000fa
:040240008206000032
:020000040000fa
:04024400820600002e
:020000040000fa
:04024800820600002a
:020000040000fa
:04024c008206000026
:020000040000fa
:040250008206000022
:020000040000fa
:04025400820600001e
:020000040000fa
:04025800820600001a
:020000040000fa
:04025c008206000016
:020000040000fa
:040260008206000012
:020000040000fa
:04026400820600000e
:020000040000fa
:04026800820600000a
:020000040000fa
:04026c008206000006
:020000040000fa
:040270008206000002
:020000040000fa
:0402740082060000fe
:020000040000fa
:0402780082060000fa
:020000040000fa
:04027c0082060000f6
:020000040000fa
:0402800082060000f2
:020000040000fa
:0402840082060000ee
:020000040000fa
:0402880082060000ea
:020000040000fa
:04028c0082060000e6
:020000040000fa
:0402900082060000e2
:020000040000fa
:0402940082060000de
:020000040000fa
:0402980082060000da
:020000040000fa
:04029c0082060000d6
:020000040000fa
:0402a00082060000d2
:020000040000fa
:0402a40082060000ce
:020000040000fa
:0402a80082060000ca
:020000040000fa
:0402ac0082060000c6
:020000040000fa
:0402b00082060000c2
:020000040000fa
:0402b40082060000be
:020000040000fa
:0402b80082060000ba
:020000040000fa
:0402bc0082060000b6
:020000040000fa
:0402c00082060000b2
:020000040000fa
:0402c40082060000ae
:020000040000fa
:0402c80082060000aa
:020000040000fa
:0402cc0082060000a6
:020000040000fa
:0402d00082060000a2
:020000040000fa
:0402d400820600009e
:020000040000fa
:0402d800820600009a
:020000040000fa
:0402dc008206000096
:020000040000fa
:0402e0008206000092
:020000040000fa
:0402e400820600008e
:020000040000fa
:0402e800820600008a
:020000040000fa
:0402ec008206000086
:020000040000fa
:0402f0008206000082
:020000040000fa
:0402f400820600007e
:020000040000fa
:0402f800820600007a
:020000040000fa
:0402fc008206000076
:020000040000fa
:040300008206000071
:020000040000fa
:04030400820600006d
:020000040000fa
:040308008206000069
:020000040000fa
:04030c008206000065
:020000040000fa
:040310008206000061
:020000040000fa
:100400000f8221000eff22000e0188000000000074
:10041000000020000000e000020032000001200087
:100420002002880014000700b80207000000e00066
:1004300003003a0020912100010020000200370053
:100440000000200001002000810f70000100320038
:100450000f000700000020000000e0000200320052
:1004600000000200000000009e16020000000000d4
:100470000040da000000fe00200020000000e00044
:1004800002003200100020009001880000000600e9
:10049000a1028800800478000000eb001f003700f4
:1004a000e284440054a0b4009905ba00e2844400f8
:1004b00054a0b4009906ba00e284440054a0b400e9
:1004c0000006eb00476fde00fd07b200ae018800ba
:1004d000636ce10003003a000ad801000000eb0061
:1004e0000e003700606ce10008003a00004deb00a0
:1004f0000a05e800020039003420ec000af0a000f0
:100500008b05e900f9ff3e00040037006168e10057
:10051000010032000086eb000b00070019c7ba008b
:100520000e04e0001905ba0003003a000a00e000da
:10053000dbff3a0000000600fe07b200ae028800b2
:100540008a047800f5ff37000cd0a300e20f4d00bd
:100550001c00390089027800354dba000a05e80010
:10056000020039003420ec000af0a0008b05e900fd
:100570000f003200254dba000a05e80002003900dc
:100580003420ec000af0a0008b05e90008003200de
:100590000c00e0000600320015cdba000a05e800a4
:1005a000020039003420ec000af0a0008b05e900bd
:1005b0008984e80054a0b4000b00e000e2ff3a0098
:1005c000000006009902ba00055d78008b05e9007d
:1005d000f7ff3200c82ade00055d78008b05e900d0
:1005e000f3ff32000c00e000f1ff320019ddba0029
:1005f000eeff37009e19040000000000aa19040055
:1006000000000000809fbe00829fbe000000fa0034
:100610000188a900008080000000e0001600320080
:10062000008080009001900000808000f0409000e9
:100630000181fb0002814100124178000281fb0030
:10064000221188008140e8007140980000808000fd
:10065000f0409000008080000048900080cf500063
:1006600005003a000080800011c0b3005148980096
:100670002188a900000000000080fa004f01be00a0
:100680004f00be00004006003600f800809fbe000c
:10069000829fbe00849fbe00869fbe000200fa00bb
:1006a00010118000620060000000e00008003a00c5
:1006b00010118000640060000000e00004003a00b7
:1006c00010118000680060000000e00008003200a7
:1006d0002222a9002242a9002262a9003111800031
:1006e000010f7800008080008d09070000000000e5
:1006f0000080fa004f03be004f02be004f01be0053
:100700004f00be003600f900004006003600f80039
:10071000809fbe00829fbe00849fbe00869fbe0059
:100720000200fa000168a900101180006200600058
:100730000000e00008003a00101180006400600032
:100740000000e00004003a00101180006800600022
:100750000000e000080032002222a9002242a90085
:100760002262a90031118000010f78000080800012
:100770006b0907000b003700008080000000e000dc
:100780000800320004003700ce01070080407800e6
:1007900000808000aa050700bc0107000004e000fb
:1007a000f9ff3a000080fa004f03be004f02be007e
:1007b0004f01be004f00be003600f90000400600a9
:1007c000809fbe00829fbe000000fa0003e8a900df
:1007d000108080000000e0001600320010808000d1
:1007e0009001900010808000f04090000181fb009b
:1007f00002814100124178000281fb00a2118800b1
:100800008140e8007140980010808000f040900026
:10081000108080000048900080cf500005003a0012
:100820001080800011c0b3005148980023e8a9004f
:10083000000000000080fa004f01be004f00be0023
:10084000004006003600f800809fbe00829fbe0078
:10085000849fbe00869fbe000200fa0090118000b7
:10086000620060000000e00008003a009011800083
:10087000640060000000e00004003a009011800075
:10088000680060000000e000080032003222a90089
:100890003242a9003262a900b1118000010f780034
:1008a000108080001e090700000000000080fa0090
:1008b0004f03be004f02be004f01be004f00be00fe
:1008c0003600f900004006003600f800809fbe00a8
:1008d000829fbe00849fbe00869fbe000200fa0079
:1008e00003c8a90090118000620060000000e000d1
:1008f00008003a0090118000640060000000e000f1
:1009000004003a0090118000680060000000e000e0
:10091000080032003222a9003242a9003262a90046
:10092000b1118000010f780010808000fc080700e2
:100930000d003700108080000000e0000a00320047
:100940000600370068010700000f78001e007800dd
:100950008040780010808000120707004e010700d9
:100960000004e000f7ff3a000080fa004f03be00e9
:100970004f02be004f01be004f00be003600f9001e
:10098000004006003600f800809fbe00829fbe0037
:10099000849fbe00869fbe000000fa00c028a90008
:1009a000180ea900182ea900c07080000040780021
:1009b000614060000004a200614060000080fb0014
:1009c00061006000c2708000e1ff2f0081006100c3
:1009d00001007000c0708800c07080000000d1006d
:1009e000614060000004a200614060000080fb00e4
:1009f0006100600000004000c2708000d1ff2f0045
:100a00008100610001007000c0708800004020007b
:100a1000410720006011b8009c0a0700e2ff370080
:100a20003600f800809fbe00829fbe00849fbe00fb
:100a3000869fbe000000fa00c068a900180ea90039
:100a4000182ea900c070800000407800614060004e
:100a50000004a200614060000080fb0061006000b3
:100a6000c2708000e1ff2f00810061000100700072
:100a7000c070880000402000410720006011b800cd
:100a8000820a0700efff37003600f800809fbe00a3
:100a9000829fbe00849fbe00869fbe000000fa00b9
:100aa000c048a900180ea900182ea900c070800027
:100ab00000407800614060000004a20061406000d6
:100ac0000080fb0061006000c2708000e1ff2f0029
:100ad0008100610001007000c070880000002100ea
:100ae000011d20006011b800680a0700efff370001
:100af0000000fa00c088a900ffff37003600f800a8
:100b0000809fbe00829fbe00849fbe00869fbe0065
:100b10000000fa00214680000010200000806000e4
:100b20000000e00001003200c508a9002046800056
:100b3000700060000000e00001003200c488a900dd
:100b4000180ea900182ea900c0708000004078007f
:100b5000614060000004a200614060000080fb0072
:100b600061006000c2708000e1ff2f008100610021
:100b700001007000c070880000802000810e2000fd
:100b80006011b800410a0700efff37003600f80097
:100b9000809fbe00829fbe00849fbe00869fbe00d5
:100ba0000000fa00c028a900180ea900182ea900fc
:100bb000c070800000407800614060000004a20026
:100bc000614060000080fb0061006000c270800036
:100bd000e1ff2f008100610001007000c0708800fb
:100be000c07080000000d100614060000004a200dd
:100bf000614060000080fb00610060000000400078
:100c0000c2708000d1ff2f008100610001007000e0
:100c1000c070880000402000410720006011b8002b
:100c20001a0a0700e2ff37003600f800809fbe0076
:100c3000829fbe00849fbe00869fbe000000fa0017
:100c4000c068a900180ea900182ea900c070800065
:100c500000407800614060000004a2006140600034
:100c60000080fb0061006000c2708000e1ff2f0087
:100c70008100610001007000c07088000040200009
:100c8000410720006011b800000a0700efff37009d
:100c90003600f800809fbe00829fbe00849fbe0089
:100ca000869fbe000000fa00c048a900180ea900e7
:100cb000182ea900c07080000040780061406000dc
:100cc0000004a200614060000080fb006100600041
:100cd000c2708000e1ff2f00810061000100700000
:100ce000c070880000002100011d20006011b800c4
:100cf000e6090700efff37000000fa00c088a900ee
:100d0000ffff37003600f800809fbe00829fbe00c4
:100d1000849fbe00869fbe000000fa00180ea90046
:100d2000182ea900c07080000000d1006140600052
:100d30000004a200614060000080fb0061006000d0
:100d400000004000c2708000d1ff2f0081006100d0
:100d500001007000c070880000802000810e20001b
:100d60006011b800c9090700eeff37000168a9004b
:100d7000e70060000188a900cc08dd0000017800d0
:100d8000f3ff28000207b200244280008481610042
:100d90004411de0083817000e80060002342880077
:100da000c308de0083ff2f00e18060003442800032
:100db00084816100cb08dd00830171000008b2006e
:100dc00033428800f27f2f004700de00034180009d
:100dd0000301610061006000028170004c00dd00d1
:100de00002418800f1ff2e000441800084806000f1
:100df00081007000014188000000060003c8a900be
:100e0000e700600003e8a900c808dd0000017800e1
:100e1000f38f2f000207b2007442800084816100ca
:100e20004811dd0083817000e80060007342880093
:100e3000c308de00f3ff2800e180600074428000f8
:100e400084816100ce08dd00830171000008b200da
:100e500073428800f2ff2b004700de001341800040
:100e60000301610061006000028170004f00dd003d
:100e700012418800f1ff2700144180008480600047
:100e800081007000114188000000060010118000f0
:100e90006140600000000600901180006140600029
:100ea000000006004211880000118800111188001e
:100eb00000000600c211880080118800911188008e
:100ec000000006000011800066006000e60f500080
:100ed00002003a003011800000000600301180004e
:100ee000f00fb20000000600801180006600600074
:100ef000e60f500002003a00b0118000000006002a
:100f0000b0118000f00fb2000000060000000500e4
:100f10008001780002003700b15978000201e90031
:100f20000200e000fcff3a0000000600889fbe00bf
:100f300090b880000000e0000100320000000100d5
:100f4000a0b880000000e0000100320000000100b5
:100f5000007121001004e00022003a00e0c080008f
:100f6000f1c0800088002000d2602600930120009c
:100f700036000700f2352f00e3c6230000004100d1
:100f8000818049000804e900f7ff3a0068712100f8
:100f90000908200088844400d260260093012000c4
:100fa0002a000700f2352f00e3c6230000004100ad
:100fb0008180490000acbe00890f5400f6ff3a0062
:100fc000e0c08800f1c08800b0bc8000c1bc8000d7
:100fd000b0b88800c1b8880011c0b300007121000a
:100fe00001487800d260260093012000e0c0800014
:100ff000f1c0800015000700f2352f00e3c6230082
:101000000002410081824900e4c08800f5c08800e8
:1010100060712100100078007f0160004211dd0046
:10102000a07121000201400012007800920090009f
:10103000b0b88800c1b888000489be0001007800fb
:1010400000f0a1004f04be0000000600020ab90033
:10105000001bb9000200b80081004200810043007b
:041060000000060086
:020000040000fa
:101064000200fa00000f78001e007800900078005b
:101074001e00780020009000020a2000a3ff070051
:101084001e00780011c0b300614898000080fa0087
:10109400000006000200fa00000f78001e0078002d
:1010a4008040eb00114898000080fa000000060020
:1010b4000400fa00000f7800214798001e00780011
:1010c4008040eb00614098001e0078008040eb00f7
:1010d400714098001e0078008040eb0001489800a1
:1010e4001e007800ae409000414898001e00780031
:1010f4008040eb00514898001e0078008040eb00cf
:10110400614898001e0078008040eb007148980008
:101114001e0078008040eb00215098002e40900083
:10112400e24f50000a003a001e0078008135210089
:10113400010878001e007800812b2100210098000e
:101144001e007800813f2100110098000c00370038
:101154002e409000e14f500009003a001e00780034
:1011640081532100010878001e0078008149210084
:10117400210098001e007800815d21001100980074
:101184001e0078008040eb00114898000080fa00af
:10119400000006000e00fa0050079800414f980026
:1011a400524f9800de009000310798005e009000d6
:1011b4000000e00002003a000000eb005700370096
:1011c4005e4890000080fb0065004000de00900057
:1011d40000804000104078000080fb00c800dd0063
:1011e4005e4890000080fb00640040005e019000b7
:1011f40000004100104078000080fb0001007000f6
:1012040066004000000f78000080eb001007980093
:10121400380037003e00900090407800014f98005d
:101224003e0090000000e800300798004e4890000f
:101234000004e000130032008e489000d0c7b300d1
:1012440080cf5000040032008e489000e0c7b30005
:1012540080cf50000b003a003e0090009040780090
:10126400014f98003e0090000000e800300798000d
:101274000e489000ef40600000c7b30000c070004b
:10128400004f98000e4890000080fb009e009000e4
:1012940000806800100798000000eb002007980009
:1012a400110037001e0090006100600000407800cb
:1012b4000004e000060032001e0090008000d1000f
:1012c4008040280000806800100798000300370061
:1012d4001e0090000000d100100798002e0090001e
:1012e4000000e800200798002e009000e70f50004f
:1012f400ecff36001e00780000f0a7000000ea00b2
:101304000000ea004f00de00004078001e0fe900f4
:101314000004e000bfff3a001e0090000080fa00c5
:10132400000006000400fa00000f7800214798002e
:101334001e0078008040eb00514898001e007800a1
:1013440011c0b300714098002e409000e24f50004d
:1013540003003a000188a9002188a8000200370090
:1013640003e8a90023e8a8001e007800a008900064
:101374001e00780010009000104078000100010069
:10138400000000001e007800504890000004e000b7
:10139400fcff32000080fa00000006000400fa009e
:1013a400000f780011079800dffe07008000780026
:1013b4001e0090001e00500000017800110009007a
:1013c4008280d8008000fd001e0040000080fa00ea
:1013d400000006001200fa0040079800214f980010
:1013e400324f9800434f9800544f98007507980067
:1013f400060f98000040eb00004f78007e0090003c
:10140400e8004000000a2000808f500002003600ef
:1014140000c0eb002d0137000040eb00204798008e
:101424004e009000900090002e4090000080fb0041
:1014340000804000e1c7b300014878002e409000ce
:101444000040e80020479800ae40900031479800e3
:101454004e009000900090002e4090000080fb0011
:1014640000804000ae489000014878002e40900073
:101474000040e800204798004e0090009000900043
:101484002e4090000080fb0000804000be48900089
:10149400014878002e4090000040e8002047980062
:1014a400ce489000d0c7b30080cf50000400320073
:1014b400ce489000e0c7b30080cf500019003a0036
:1014c4004e009000900090002e4090000080fb00a1
:1014d40000804000d1c7b300014878002e4090003e
:1014e4000040e800204798004e00900090009000d3
:1014f4002e4090000080fb0000804000ce48900009
:101504006fc1600001c5b3008140710001487800db
:101514002e4090000040e800204798001e4fe8004d
:101524000a0037004e009000900090002e4090007a
:101534000080fb0000804000ce4890000148780005
:101544002e4090000040e800204798004e00900094
:10155400900090002e4090000080fb00008040002e
:10156400de489000014878002e4090000040e800da
:10157400204798004e009000900090002e4090006c
:101584000080fb0000804000fe0090008140780055
:10159400014878002e4090000040e8002047980061
:1015a4004e009000900090002e4090000080fb00c0
:1015b40000804000fe009000c808de0081407800f2
:1015c400014878002e4090000040e8002047980031
:1015d4007e0090000000e0003d003200390037003a
:1015e4000e08900090407800d0c7b30080cf500020
:1015f400050032000e08900090407800e0c7b30068
:1016040080cf500019003a004e00900090009000e6
:101614002e4090000080fb0000804000d1c7b30042
:10162400014878002e4090000040e80020479800d0
:101634004e009000900090002e4090000080fb002f
:10164400008040008e089000914078006fc16000d7
:1016540001c5b30081407100014878002e4090001c
:101664000040e800204798000b0037004e0090002f
:10167400900090002e4090000080fb00008040000d
:101684008e08900091407800014878002e40900028
:101694000040e800204798000e08900010407800b1
:1016a4009e40900000c04000104798000e08900033
:1016b4000000e800000f98007e0090000000e900a0
:1016c400700798007e0090000000e000c4ff3a001c
:1016d4004e009000100090000000e8001e417800c9
:1016e40011c0b300abfe070020079800ae009000c5
:1016f400f00f200080806000d0072000808f500011
:1017040006003200ae009000f00f200080806000e0
:10171400e0072000808f500019003a004e0090002e
:10172400900090002e4090000080fb00008040005c
:10173400d1c7b300014878002e4090000040e80073
:10174400204798004e009000900090002e4090009a
:101754000080fb0000804000ae00900081407800d3
:101764006fc1600001c5b300814071000148780079
:101774002e4090000040e800204798000b003700fe
:101784004e009000900090002e4090000080fb00de
:1017940000804000ae00900081407800014878004d
:1017a4002e4090000040e800204798002e00900052
:1017b4004800de0020079800ae009000f00f2000e3
:1017c40080806000d0072000808f50000600320027
:1017d400ae009000f00f200080806000e007200041
:1017e400808f500019003a004e0090009000900045
:1017f4002e4090000080fb0000804000d1c7b30061
:10180400014878002e4090000040e80020479800ee
:101814004e009000900090002e4090000080fb004d
:1018240000804000ae009000814078006fc16000ed
:1018340001c5b30081407100014878002e4090003a
:101844000040e800204798000b0037004e0090004d
:10185400900090002e4090000080fb00008040002b
:10186400ae00900081407800014878002e4090003e
:101874000040e800204798004e009000900090003f
:101884002e4090000080fb0000804000e1c7b300c0
:10189400014878002e4090000040e800204798005e
:1018a400ae409000614798004e009000ee409000da
:1018b400014898004e009000404890008040780015
:1018c4004e00900097fe07000040eb000080fa00f5
:1018d400000006001600fa0060079800614f9800a7
:1018e400724f98000357980014579800150f9800ea
:1018f400260f98000040eb00004f78000040eb00fa
:10190400004f98001e089000e8004000000a2000e4
:10191400808f50000200360000c0eb004501370004
:101924009e089000210798000040eb007047980043
:101934006e009000900090007e4090000080fb00bc
:1019440000804000e1c7b300014878007e40900069
:101954000040e80070479800fe409000114f980046
:101964006e009000900090007e4090000080fb008c
:1019740000804000ee489000014878007e409000ce
:101984000040e800704798006e00900090009000be
:101994007e4090000080fb0000804000fe489000e4
:1019a400014878007e4090000040e80070479800ad
:1019b4008e509000d0c7b30080cf50000400320096
:1019c4008e509000e0c7b30080cf500019003a0059
:1019d4006e009000900090007e4090000080fb001c
:1019e40000804000d1c7b300014878007e409000d9
:1019f4000040e800704798006e009000900090004e
:101a04007e4090000080fb00008040008e509000db
:101a14006fc1600001c5b3008140710001487800c6
:101a24007e4090000040e800704798001e4fe80098
:101a34000a0037006e009000900090007e409000f5
:101a44000080fb00008040008e5090000148780028
:101a54007e4090000040e800704798006e009000bf
:101a6400900090007e4090000080fb0000804000c9
:101a74009e509000014878007e4090000040e800ad
:101a8400704798006e009000900090007e40900097
:101a94000080fb00008040009e0890008140780098
:101aa400014878007e4090000040e80070479800ac
:101ab4006e009000900090007e4090000080fb003b
:101ac400008040009e089000c808de008140780035
:101ad400014878007e4090000040e800704798007c
:101ae4002e0090000000e0003d0032003900370075
:101af4002e08900090407800d0c7b30080cf5000eb
:101b0400050032002e08900090407800e0c7b30032
:101b140080cf500019003a006e00900090009000b1
:101b24007e4090000080fb0000804000d1c7b300dd
:101b3400014878007e4090000040e800704798001b
:101b44006e009000900090007e4090000080fb00aa
:101b540000804000ae089000914078006fc16000a2
:101b640001c5b30081407100014878007e409000b7
:101b74000040e800704798000b0037006e009000aa
:101b8400900090007e4090000080fb0000804000a8
:101b9400ae08900091407800014878007e409000a3
:101ba4000040e800704798002e089000104078002c
:101bb400ee40900000c04000604798002e0890005e
:101bc4000000e800200f98002e0090000000e900bb
:101bd400200798002e0090000000e000c4ff3a00a7
:101be4000e4890000004e00008003a006e009000e7
:101bf400100090000000e8001e41780011c0b300fe
:101c040064fd070010079800120037006e00900072
:101c1400a00090007e4090000080fb000080400007
:101c2400104078000080fb00c800dd006e009000ca
:101c3400200190007e4090000080fb000000e9003d
:101c440000004100104078000080fb00010070009b
:101c5400100798009e009000f00f20008080600024
:101c6400d0072000808f5000060032009e009000b4
:101c7400f00f200080806000e0072000808f50007b
:101c840019003a006e009000900090007e40900091
:101c94000080fb0000804000d1c7b30001487800f9
:101ca4007e4090000040e800704798006e0090006d
:101cb400900090007e4090000080fb000080400077
:101cc4009e009000814078006fc1600001c5b300a0
:101cd40081407100014878007e4090000040e80097
:101ce400704798000b0037006e0090009000900041
:101cf4007e4090000080fb00008040009e00900029
:101d040081407800014878007e4090000040e8005f
:101d1400704798001e0090004800de0010079800ed
:101d24009e009000f00f200080806000d00720000b
:101d3400808f5000060032009e009000f00f2000bb
:101d440080806000e0072000808f500019003a0076
:101d54006e009000900090007e4090000080fb0098
:101d640000804000d1c7b300014878007e40900055
:101d74000040e800704798006e00900090009000ca
:101d84007e4090000080fb00008040009e00900098
:101d9400814078006fc1600001c5b30081407100cb
:101da400014878007e4090000040e80070479800a9
:101db4000b0037006e009000900090007e40900071
:101dc4000080fb00008040009e009000814078006d
:101dd400014878007e4090000040e8007047980079
:101de4006e009000900090007e4090000080fb0008
:101df40000804000e1c7b300014878007e409000b5
:101e04000040e80070479800fe409000214f980081
:101e14006e009000ae489000014898006e0090005b
:101e240040489000804078006e0090003dfd07001f
:101e34000040eb000080fa00000006000400fa00f5
:101e4400000f7800214798001e0078001048900089
:101e54000080fb00e40f50008c003200e40f5000bf
:101e64000c003c00e10f50001b003200e10f500059
:101e740003003c000000e0000f003200bb0137000b
:101e8400e20f50003a003200e30f50004e003200df
:101e9400b6013700e60f5000f0003200e60f5000a4
:101ea40099003500e70f500025013200e80f50007b
:101eb40094013200ad013700ae409000e0c7b3009a
:101ec40080cf5000ad013a001e00780011c0b3006d
:101ed40011489800b0013700ae409000e0c7b3004d
:101ee40080cf500003003a001e00780069fc070010
:101ef400a90137002e419000a100210082487800fa
:101f04001e0078008040eb00614098001e007800bd
:101f14008040eb00714898001e0078008040eb0080
:101f2400614898001e007800100178001e007800b7
:101f3400604090008080fb00810041002e419000b1
:101f4400824878008040e8001e00780061409800d4
:101f54002e4090008080fb001e0078005100980005
:101f64001e00780021c0b300114898008a01370090
:101f74001e007800100178001e0078006040900078
:101f84008080fb00810041002e419000824878004f
:101f94008040e8001e007800614098001e00780030
:101fa400d00090002e4090000080fb008080400014
:101fb4001e007800510098001e00780031c0b30064
:101fc4001148980074013700ae409000e0c7b30098
:101fd40080cf500003003a001e0078002dfc07005b
:101fe4006d013700ae409000d0c7b30080cf5000e1
:101ff40004003a001e00780011c0b300015098009c
:10200400650137001e007800005090000004e000d5
:10201400080032002e409000ef40600000c7b3007b
:1020240000c07000204798001e0078008040eb003c
:10203400015098001e007800100178001e007800fe
:10204400604090008080fb00810041002e419000a0
:10205400824878008040e8001e00780061409800c3
:102064001e007800d00090002e4090000080fb00fd
:10207400808040001e007800510098001e00780007
:1020840041c0b3001148980043013700ae409000ae
:10209400e0c7b30080cf500003003a001e00780070
:1020a400fcfb07003c0137001e007800100178009b
:1020b4001e007800604090008080fb008100410099
:1020c4002e419000824878008040e8001e0078008d
:1020d400614098001e007800d00090002e409000cf
:1020e4000080fb00808040001e00780051009800b2
:1020f4001e00780051c0b300114898002000200051
:102104006080880024013700ae409000e0c7b3002f
:1021140080cf500003003a001e007800ddfb07006a
:102124001d013700ae409000d0c7b30080cf5000ef
:1021340004003a001e00780011c0b300015098005a
:10214400150137001e007800005090000004e000e4
:10215400080032002e409000ef40600000c7b3003a
:1021640000c07000204798001e0078008040eb00fb
:10217400015098001e007800100178001e007800bd
:10218400604090008080fb00810041002e4190005f
:10219400824878008040e8001e0078006140980082
:1021a4001e007800d00090002e4090000080fb00bc
:1021b400808040001e0078005100980060808000fc
:1021c4000000e90060808800608080000000e0007a
:1021d400ec003a001e007800100078006500400012
:1021e400104078000080fb00c800dd001e0078006d
:1021f4001000780064004000104078000080fb006c
:102204000100700060808800608080000000e000b1
:1022140006003a0020002000608088001e0078003c
:1022240071c0b30011489800db0037006080800063
:10223400e4004000000a2000808f500003003600b4
:102244001e00780093fb0700d30037001e007800bf
:1022540061c0b30011489800cf003700ae40900031
:10226400e0c7b30080cf500003003a001e0078009e
:1022740088fb0700c8003700ae409000d0c7b30009
:1022840080cf500004003a001e00780011c0b30053
:1022940001509800c00037001e00780000509000e4
:1022a4000004e000080032002e409000ef4060007f
:1022b40000c7b30000c07000204798001e007800db
:1022c4008040eb00015098001e0078001001780057
:1022d4001e007800604090008080fb008100410077
:1022e4002e419000824878008040e8001e0078006b
:1022f400614098001e007800d00090002e409000ad
:102304000080fb00808040001e007800510098008f
:10231400608080000000e9006080880060808000a8
:102324000000e00099003a0020002000608088004e
:102334001e00780071c0b300114898009600370061
:10234400ae409000e0c7b30080cf500003003a00d5
:102354001e0078004ffb07008f003700ae4090004e
:10236400d0c7b30080cf500004003a001e007800ac
:1023740011c0b30001509800870037001e00780098
:10238400005090000004e000080032002e4090004d
:10239400ef40600000c7b30000c070002047980001
:1023a4001e0078008040eb00015098001e00780069
:1023b400100178001e007800604090008080fb00cf
:1023c400810041002e419000824878008040e8005e
:1023d4001e007800614098001e00780011c0b30010
:1023e40011509800608080000000e900608088003f
:1023f400608080000000e00066003a001e00780063
:10240400604090008040e9001e0078006140980020
:102414001e007800100078000041eb008040eb00c3
:102424005cfb07009e007800d00098001e00780036
:10243400900078001e0078001000780065004000cd
:10244400104078000080fb004801dd001e00780089
:102454001000780064004000104078000080fb0009
:1024640002007000670040000080400010407800c7
:102474000080fb00c800dd001e0078001001780019
:102484001e007800100078006500400010407800bd
:102494000080fb00c801dd001e00780010007800f9
:1024a40064004000104078000080fb0003007000ce
:1024b4006600400000004100104078000080fb00ee
:1024c40001007000708088001e0078008040eb00de
:1024d400115098001e007800d00090007080800099
:1024e400808f5000030032001e00780011c0b3003a
:1024f400714898001e00780081c0b300114898000c
:1025040025003700ae409000e0c7b30080cf5000f4
:1025140010003a001e007800d1fa0700c070800055
:102524000000d100614060000004a200614060002e
:102534000080fb006100600000004000c270800069
:10254400d1ff2f008100610001007000c07088007d
:10255400020037001e007800cefa07001e00780043
:102564008040eb00114898000b0037001e007800f3
:10257400c8fa070000000000070037000000000050
:1025840005003700000000000300370000000000d1
:1025940001003700000000000080fa00000006007f
:1025a4000400fa00000f7800214798001e0078000c
:1025b400104890000080fb00e40f50008c003200b3
:1025c400e40f50000c003c00e10f50001b003200ef
:1025d400e10f500003003c000000e0000f00320057
:1025e400c1013700e20f50003a003200e30f5000ff
:1025f4004e003200bc013700e60f5000f0003200fc
:10260400e60f500099003500e70f50002501320015
:10261400e80f50009b013200b3013700ae40900038
:10262400e0c7b30080cf5000b3013a001e00780029
:1026340011c0b30011489800b6013700ae409000b5
:10264400e0c7b30080cf500003003a001e007800ba
:1026540090fa0700af0137002e419000410021009d
:10266400824878001e0078008040eb0061409800aa
:102674001e0078008040eb00714898001e0078002e
:102684008040eb00614898001e007800100178003b
:102694001e007800604090008080fb0081004100b3
:1026a4002e419000824878008040e8001e007800a7
:1026b400614098002e4090008080fb001e0078004e
:1026c400510098001e00780021c0b3001148980002
:1026d400900137001e007800100178001e00780079
:1026e400604090008080fb00810041002e419000fa
:1026f400824878008040e8001e007800614098001d
:102704001e007800d00090002e4090000080fb0056
:10271400808040001e007800510098001e00780060
:1027240031c0b300114898007a013700ae409000e0
:10273400e0c7b30080cf500003003a001e007800c9
:1027440054fa070073013700ae409000d0c7b300bd
:1027540080cf500004003a001e00780011c0b3007e
:10276400015098006b0137001e0078000050900063
:102774000004e000080032002e409000ef406000aa
:1027840000c7b30000c07000204798001e00780006
:102794008040eb00015098001e0078001001780082
:1027a4001e007800604090008080fb0081004100a2
:1027b4002e419000824878008040e8001e00780096
:1027c400614098001e007800d00090002e409000d8
:1027d4000080fb00808040001e00780051009800bb
:1027e4001e00780041c0b300114898004901370029
:1027f400ae409000e0c7b30080cf500003003a0021
:102804001e00780023fa0700420137001e007800fa
:10281400100178001e007800604090008080fb006a
:10282400810041002e419000824878008040e800f9
:102834001e007800614098001e007800d0009000cf
:102844002e4090000080fb00808040001e00780035
:10285400510098001e00780051c0b3001148980040
:1028640020002000308088002a013700ae4090000c
:10287400e0c7b30080cf500003003a001e00780088
:1028840004fa070023013700ae409000d0c7b3001c
:1028940080cf500004003a001e00780011c0b3003d
:1028a400015098001b0137001e0078000050900072
:1028b4000004e000080032002e409000ef40600069
:1028c40000c7b30000c07000204798001e007800c5
:1028d4008040eb00015098001e0078001001780041
:1028e4001e007800604090008080fb008100410061
:1028f4002e419000824878008040e8001e00780055
:10290400614098001e007800d00090002e40900096
:102914000080fb00808040001e0078005100980079
:10292400308080000000e900308088003080800022
:102934000000e000f2003a001e0078001000780069
:1029440065004000104078000080fb00c800dd00f6
:102954001e007800100078006400400010407800e9
:102964000080fb000100700030808800308080000f
:102974000000e00006003a002000200030808800bb
:102984001e00780071c0b30011489800e1003700c0
:1029940030808000e4004000000a2000808f500056
:1029a400030036001e007800baf90700d90037008a
:1029b4001e00780061c0b30011489800d5003700ac
:1029c400ae409000e0c7b30080cf500003003a004f
:1029d4001e007800aff90700ce003700ae4090002b
:1029e400d0c7b30080cf500004003a001e00780026
:1029f40011c0b30001509800c60037001e007800d3
:102a0400005090000004e000080032002e409000c6
:102a1400ef40600000c7b30000c07000204798007a
:102a24001e0078008040eb00015098001e007800e2
:102a3400100178001e007800604090008080fb0048
:102a4400810041002e419000824878008040e800d7
:102a54001e007800614098001e007800d0009000ad
:102a64002e4090000080fb00808040001e00780013
:102a740051009800308080000000e9003080880018
:102a8400308080000000e0009f003a002000200019
:102a9400308088001e00780071c0b300114898008f
:102aa4009c003700ae409000e0c7b30080cf5000d8
:102ab40003003a001e00780076f9070095003700fd
:102ac400ae409000d0c7b30080cf500004003a005d
:102ad4001e00780011c0b300015098008d0037002b
:102ae4001e007800005090000004e000080032004e
:102af4002e409000ef40600000c7b30000c070009b
:102b0400204798001e0078008040eb000150980098
:102b14001e007800100178001e00780060409000cc
:102b24008080fb00810041002e41900082487800a3
:102b34008040e8001e007800614098001e00780084
:102b440011c0b30011509800308080000000e900eb
:102b540030808800308080000000e0006c003a0083
:102b64001e007800604090008040e9001e0078005c
:102b7400614098001e007800100078000041eb00ce
:102b84008040eb0083f907009e007800d000980095
:102b94001e007800900078001e0078001000780075
:102ba40065004000104078000080fb004801dd0013
:102bb4001e00780010007800640040001040780087
:102bc4000080fb00020070006700400000804000ad
:102bd400104078000080fb00c800dd001e00780073
:102be400100178001e007800100078006500400095
:102bf400104078000080fb00c801dd001e00780052
:102c04001000780064004000104078000080fb0051
:102c1400030070006600400000004100104078008e
:102c24000080fb0001007000408088001e007800d6
:102c34008040eb00115098001e007800d0009000f6
:102c440040808000808f5000070032001e00780012
:102c5400205090000004e00003003a001e007800b9
:102c640011c0b300714898001e0078008040eb004a
:102c7400215098001e00780081c0b30011489800cc
:102c840024003700ae409000e0c7b30080cf50006e
:102c94000f003a001e007800f1f80700c0708000b1
:102ca40000407800614060000004a20061406000c0
:102cb4000080fb0061006000c2708000e1ff2f0013
:102cc4008100610001007000c070880002003700bc
:102cd4001e007800eff807001e0078008040eb002b
:102ce400114898000b0037001e007800e9f807002f
:102cf4000000000007003700000000000500370056
:102d0400000000000300370000000000010037004d
:102d1400000000000080fa00000006000200fa0033
:102d2400000f78001e0078008040eb0011489800e6
:102d34000080fa00000006000e00fa00bc01070043
:102d4400890107001970ef0003003700000000003c
:102d5400010037000000000019d0bf000080fb0014
:102d6400e20f50001e003200e20f500003003c004e
:102d7400e10f5000060032005a003700e40f500003
:102d84002e003200e60f500040003200550037009c
:102d94000000eb00000f78000040eb002047980093
:102da4002e4090000082fb00a00421009041780096
:102db40080042100104178009004210090407800a4
:102dc400908080001e0378008402780034c0b30031
:102dd40080f9070020c0b30019f0b70041003700a4
:102de4000000eb00000f78000040eb002047980043
:102df40018d0bf000040e80018f0b7002e40900043
:102e04000082fb00830121009341780080042100ab
:102e14001041780090042100904078009080800058
:102e24001e0378008402780044c0b30069f90700e7
:102e340030c0b30019f0b7002a0037000000eb00df
:102e4400000f78000040eb00204798002e409000cf
:102e54000082fb00a004210090417800800421003e
:102e64001041780090042100904078009080800008
:102e74001e0378008402780024c0b30055f90700cb
:102e840060c0b30019f0b700160037008067210056
:102e9400000f7800b08080002047980018d0bf0051
:102ea4000040e80018f0b7002e4090000082fb00bc
:102eb400a004210090417800800421001041780092
:102ec4009004210090407800908080001e037800d8
:102ed4008402780064c5b3003ef907001970ef005e
:102ee4000000000080808000604890000004e00042
:102ef400680032002168a9008080800020009000d2
:102f040065004000104078000080fb00c800dd0030
:102f14008080800020009000640040001040780011
:102f24000080fb0001007000660040008000780013
:102f340080808000200090000101780080007800eb
:102f440080042100f1f70700808080007048900021
:102f540030479800808080008040eb0061489800f2
:102f64000168a9002168a8000000eb002007980070
:102f74000040eb0060479800b004210090407800c6
:102f8400714798007e409000e24f500003003a00e1
:102f9400a00421001040780018f0b700fe40900013
:102fa40070c5b30080cf500011003a00d004210056
:102fb400104078000080fb00c800dd00c004210040
:102fc400104078000080fb0001007000b080880091
:102fd400b1808000e00421000101780080007800c5
:102fe40080672100c9f7070010c0b30019f0b700cb
:102ff400fe40900020c5b30080cf500005003a0089
:1030040019d0bf00e34f500002003a0040c0b300a3
:1030140019f0b7007e409000e24f500005003a00de
:1030240019d0bf00e54f500002003a0060c0b30061
:1030340019f0b70019d0bf000004e00015003a00f1
:10304400d0042100104078000080fb00c800dd009f
:10305400c0042100104078000080fb0001007000d3
:1030640080027800b004210010427800a0042100fe
:1030740090417800900421001041780080042100e0
:103084009040780080808000e6042100d1f8070099
:103094001470ef0090808000604890000004e0000d
:1030a4002aff320023c8a9009080800020009000ed
:1030b400020a2000800078000018210093f707001e
:1030c400908080002000900065004000104078004f
:1030d4000080fb00c800dd0090808000200090008c
:1030e40064004000104078000080fb000100700084
:1030f400660040004007980090808000704890006f
:10310400204f9800908080008040eb006148980038
:1031140003c8a90023c8a8000000eb00000f780032
:103124000040eb00204798003018210090407800c0
:10313400314f9800be48900060c5b30080cf500066
:103144001f003a0050182100104078000080fb0056
:10315400c800dd0040182100104078000080fb000a
:1031640001007000e30f500015003a0060182100c0
:10317400600798006e0090000000e8006007980067
:103184006e0090009040780010c8b30080cf5000cb
:103194000b003a006e0090000000e8006007980001
:1031a4006e0090009040780050c5b30080cf50006e
:1031b40003003a006e0090008040eb000148780064
:1031c40019d0bf000004e000e2fe3a0050182100cc
:1031d400104078000080fb00c800dd00401821008a
:1031e400104078000080fb0001007000800278002d
:1031f40030182100104278002018210090417800f6
:103204001018210010417800001821009040780027
:103214009080800066182100aef90700cefe3700ca
:020000040000fa
:103224009a17000082000000820000000080020063
:103234007f12ca006b41e300cd50e900808437005f
:1032440053228e00e13505006f27ad0058f20700c8
:103254005ff39d00bfddf2007f3c3200a16b55009f
:10326400beed93006d7d050032a57900e4d8a80079
:103274006d99cb00d1099700e6ee4f00acdcf3006a
:10328400dfcc840041e2780030325a00e9896100e1
:1032940075e6dc0076b68900f6bac00031f3180092
:1032a400d68735003b989a00c838250060445400fe
:1032b4000d3a2d00d84d13001653540052415400ba
:1032c40041535900539baa00fff082003fa03800ed
:1032d40011ad820086fdf900890000001c10000079
:1032e400f40600008000000010100000060000003a
:1032f400820000001c1032001001000016100000b3
:103304000600000080000000001000001000000013
:10331400800000001c18000004000000820000006f
:103324000100000000000000101700008a000000e7
:08333400800000000000000011
:020000040000fa
:10333c000200fa00004f78001e80fb00201188006c
:10334c000080fa00000006000200fa00004f78002e
:10335c001e80fb00a01188000080fa00000006000f
:10336c000000fa00140ea900142ea900180ea800d3
:10337c00182ea900c002200020368800c13380001e
:10338c0000fc2f00008060000000a000c03388000b
:10339c00d002200030368800c1338000f00f2c00a2
:1033ac00808060000030200001007000c033880075
:1033bc00e0fa2f006af60700e0fa2f008cf60700ff
:1033cc0012042000d1f5250080c92c00b2f60700ac
:1033dc0012042000d1f5250080c92c00b2f607009c
:1033ec0080808000008088008080800021c0b30035
:1033fc002df7070080808000e199210021089800ba
:10340c0090808000108088009080800011c0b300f4
:10341c0025f7070090808000a19a210021089800d0
:10342c000080fa00000006000000fa00213a80003b
:10343c0000fe2f0000806000203a8800213a8000b6
:10344c00f0f32f0000806000203a8800313a8000b1
:10345c0000e02f00008060004001b300303a88008b
:10346c0000000000113a8000000220000080600083
:10347c000000e000fbff32000080fa0000000600b4
:020000040000fa
:10348c00f03fb1000180b10006003500ee030900e9
:10349c0000000000403fb1000180b100fbff3d0087
:1034ac001000b000203fb000020035000080090081
:0834bc00000000000000060002
:020000040000fa
:020000040002f8
:04af0000ffff00004f
:020000040000fa
:020000040002f8
:04af2000ffff00002f
:020000040000fa
:020000040002f8
:04af30007bff0000a3
:020000040000fa
:020000040002f8
:04af38009eff000078
:020000040000fa
:020000040002f8
:04af40009fff00006f
:020000040000fa
:020000040002f8
:04af4800ffff000007
:020000040000fa
:020000040002f8
:04af5000ffff0000ff
:020000040000fa
:020000040002f8
:04af5800ffff0000f7
:020000040000fa
:020000040002f8
:04af6000ffff0000ef
:020000040000fa
:020000040002f8
:04af6800ffff0000e7
:020000040000fa
:020000040002f8
:04af7000ffff0000df
:020000040000fa
:020000040002f8
:04af7800feff0000d8
:020000040000fa
:020000040002f8
:04af8000ffff0000cf
:020000040000fa
:020000040002f8
:04af8800ffff0000c7
:020000040000fa
:04f808007f454c46a6
:020000040000fa
:04f80c007f454c46a2
:020000040000fa
:04f814007f454c469a
:020000040000fa
:04f818007f454c4696
:00000001FF
